:100000000C940A010C9432010C9432010C943201CC
:100010000C9432010C9432010C9432010C94320194
:100020000C9432010C9432010C9432010C94320184
:100030000C9432010C9432010C9432010C94320174
:100040000C9412060C9432010C94E0050C94BA0541
:100050000C9432010C9432010C9432010C94320154
:100060000C9432010C94320100000000250028009D
:100070002B0000000000240027002A004572726F48
:100080007220496E697469616C697A696E67204D86
:100090004350323531352E2E2E004D4350323531FE
:1000A0003520496E697469616C697A65642053759D
:1000B000636365737366756C6C79210052616E645D
:1000C0006F6D2043414E206672616D6520666169E7
:1000D0006C65640052616E646F6D2043414E206612
:1000E00072616D652073656E74000000000023006E
:1000F0002600290004040404040404040202020289
:1001000002020303030303030102040810204080DA
:100110000102040810200102040810200000000859
:1001200000020100000304070000000000000000BE
:10013000496E74657272757074206973206173738F
:1001400065727465642C20627574207468657265CC
:1001500020776173206E6F206D6573736167652E04
:100160002E2E0042616420504944207265717565ED
:100170007374004572726F722073656E64696E6786
:100180002050494420726573706F6E73650050494A
:100190004420726573706F6E73652073656E7400B2
:1001A000203078252E3258002052454D4F5445209E
:1001B00052455155455354204652414D45005374C4
:1001C000616E646172642049443A203078252E3390
:1001D0006C5820202020202020444C433A202568C1
:1001E00068752020446174613A00457874656E64D6
:1001F00065642049443A203078252E386C582020F8
:10020000444C433A20256868752020446174613A63
:1002100000005C0611241FBECFEFD8E0DEBFCDBFCB
:1002200011E0A0E0B1E0E4E9FBE102C005900D922D
:10023000A831B107D9F721E0A8E1B1E001C01D92D2
:10024000A83DB207E1F711E0CAE0D1E004C0219770
:10025000FE010E94BD0DC930D107C9F70E94970663
:100260000C94C80D0C9400000F931F93CF93DF9351
:100270008C01C0E0D0E0F801EC0FFD1F6491662313
:1002800071F0E0912901F0912A010190F081E02DB7
:1002900089E291E00995892B11F02196ECCFCE01EE
:1002A000DF91CF911F910F910895CF92DF92EF923E
:1002B000FF920F931F93CF93DF936C017A018B0111
:1002C000C0E0D0E0CE15DF0589F0D8016D918D0139
:1002D000D601ED91FC910190F081E02DC6010995C8
:1002E000892B11F47E0102C02196ECCFC701DF916A
:1002F000CF911F910F91FF90EF90DF90CF900895D5
:10030000FC01918D828D981761F0828DDF01A80F1D
:10031000B11D5D968C91928D9F5F9F73928F90E03F
:1003200008958FEF9FEF0895FC01918D828D9817AE
:1003300031F0828DE80FF11D858D90E008958FEFEB
:100340009FEF0895FC01918D228D892F90E0805CB4
:100350009F4F821B91098F739927089589E291E03D
:100360000E94A20121E0892B09F420E0822F089548
:10037000FC01848DDF01A80FB11DA35ABF4F2C9142
:10038000848D90E001968F739927848FA689B78911
:100390002C93A089B1898C9180648C93938D848DEA
:1003A000981306C00288F389E02D80818F7D8083B9
:1003B0000895EF92FF920F931F93CF93DF93EC0179
:1003C00081E0888F9B8D8C8D981305C0E889F98911
:1003D000808185FD24C0F62E0B8D10E00F5F1F4F2E
:1003E0000F731127E02E8C8DE8120CC00FB607FC9E
:1003F000FACFE889F989808185FFF5CFCE010E9487
:10040000B801F1CF8B8DFE01E80FF11DE35AFF4FCC
:10041000F0820B8FEA89FB898081806207C0EE89B8
:10042000FF896083E889F98980818064808381E025
:1004300090E0DF91CF911F910F91FF90EF90089581
:10044000CF93DF93EC01888D8823C9F0EA89FB897B
:10045000808185FD05C0A889B9898C9186FD0FC072
:100460000FB607FCF5CF808185FFF2CFA889B98947
:100470008C9185FFEDCFCE010E94B801E7CFDF91CF
:10048000CF91089580E090E0892B29F00E94AE0181
:1004900081110C9400000895833081F028F481309C
:1004A00099F08230A1F008958730A9F08830B9F032
:1004B0008430D1F4809180008F7D03C080918000D2
:1004C0008F7780938000089584B58F7702C084B5BC
:1004D0008F7D84BD08958091B0008F7703C0809197
:1004E000B0008F7D8093B00008951F93CF93DF936A
:1004F000282F30E0F901E45EFE4F8491F901E85FB6
:10050000FE4FD491F901EC50FF4FC491CC23C9F0B8
:10051000162F81110E944C02EC2FF0E0EE0FFF1F0E
:10052000E859FF4FA591B4918FB7F894111105C008
:100530009C91ED2FE095E92302C0EC91ED2BEC931B
:100540008FBFDF91CF911F910895CF93DF9390E0FC
:10055000FC01E85FFE4F2491FC01EC50FF4F8491B9
:10056000882361F190E0880F991FFC01EE58FF4F3E
:10057000C591D491FC01E859FF4FA591B491611147
:1005800009C09FB7F8948881209582238883EC91D5
:100590002E230BC0623061F49FB7F8943881822F0C
:1005A000809583238883EC912E2B2C939FBF06C0CC
:1005B0008FB7F894E8812E2B28838FBFDF91CF91DE
:1005C00008953FB7F89480911D0190911E01A0916C
:1005D0001F01B091200126B5A89B05C02F3F19F03F
:1005E0000196A11DB11D3FBFBA2FA92F982F8827B3
:1005F000820F911DA11DB11DBC01CD0142E0660F0E
:10060000771F881F991F4A95D1F708952FB7F8943F
:100610006091190170911A0180911B0190911C0148
:100620002FBF08958EBD00000DB407FEFDCF8EB51F
:1006300008951F93CF93DF93182FC6ECD1E060E0AD
:1006400088890E94750283E00E941203812F0E9414
:10065000120380E00E941203182F61E088890E9433
:100660007502812FDF91CF911F910895EF92FF9234
:100670000F931F93CF93DF931F92CDB7DEB7082F51
:10068000162F86ECE82E81E0F82E60E0F7018089D5
:1006900049830E94750285E00E941203802F0E9408
:1006A0001203812F0E9412034981842F0E9412039A
:1006B00061E0F70180890F90DF91CF911F910F9139
:1006C000FF90EF900C9475020F931F93CF93DF93DD
:1006D000C82F0E940603D62F0C2F10E04C2F60EE7F
:1006E0008FE00E9436038EE00E941903807E282F3F
:1006F00030E02017310741F00E940603962F9D1B22
:10070000993C60F381E001C080E0DF91CF911F91BF
:100710000F910895CF93DF93C82F8EE00E941903A5
:10072000807E8032F9F4C032E9F08BE20E94190336
:10073000D82FD07486FD05C040E460E48BE20E94AF
:10074000360340E460E48CE20E94360380E60E94B7
:100750006403811111C0D11105C040E060E48BE257
:100760000E94360340E060E48CE20E9436038C2F46
:10077000DF91CF910C94640381E0DF91CF910895D4
:10078000CF92DF92FF920F931F93CF93DF931F922D
:10079000CDB7DEB7F82E162F042F60E08091D6017A
:1007A00079830E94750282E00E9412038F2D0E94BD
:1007B0001203F12EC12E7981D72E8C2D8F1980171F
:1007C00030F4F60181916F010E941203F6CF61E0CF
:1007D0008091D6010F90DF91CF911F910F91FF90E3
:1007E000DF90CF900C947502CF93DF9300D000D0B0
:1007F000CDB7DEB71C821B82613019F498E09A8372
:1008000001C01A82198244E0BE016F5F7F4F0E94CF
:10081000C0030F900F900F900F90DF91CF9108952C
:100820000F931F93CF93DF93082F162FC6ECD1E0C1
:1008300060E088890E94750282E00E941203802F86
:100840000E941203812F0E94120361E08889DF91C8
:10085000CF911F910F910C9475027F928F929F926E
:10086000AF92BF92CF92DF92EF92FF920F931F93BE
:10087000CF93DF9300D000D0CDB7DEB7C12CD12C01
:1008800070E3A72EE0E49E2EF0E58F2E8E010F5F21
:100890001F4FA3E07A2E700EA9829A828B82780174
:1008A000F701B1907F018B2D0E941903982F98704A
:1008B00083FD04C0FF24F394FB0C04C07E10F0CF32
:1008C000F12C92E0FFEFCF1ADF0A923029F422E3F5
:1008D000C216D10409F768C082E3C816D10409F42E
:1008E00063C04091CB016CEC71E085E08F0D0E94FC
:1008F000C0038091D401813029F48091CB018064C0
:100900008093CB016091CB0184E08F0D0E94100495
:100910004091C7015091C8016091C9017091CA010D
:100920008091C6018130B1F44C835B83AB016627B3
:100930007727942F9C71842F8370E8E09E9F800D11
:10094000112488608A8365E0569547956A95E1F79A
:1009500049830DC0CA0123E0969587952A95E1F752
:1009600089834295440F407E4A831C821B8244E067
:10097000B8018F2D0E94C003FA9448E068E08F2DE3
:100980000E94360300E010E00F5F1F4F8F2D0E9482
:10099000190383FF04C002331105B1F707C0023306
:1009A000110521F080E003C086E001C087E00F90D0
:1009B0000F900F900F90DF91CF911F910F91FF90AB
:1009C000EF90DF90CF90BF90AF909F908F907F90EF
:1009D0000895CF92DF92FF920F931F93CF93DF93EF
:1009E0001F92CDB7DEB7F82E162F042F60E080914E
:1009F000D60179830E94750283E00E9412038F2D35
:100A00000E941203F12EC12E7981D72E8C2D8F19C1
:100A1000801738F480E00E941203F60181936F0181
:100A2000F5CF61E08091D6010F90DF91CF911F91BA
:100A30000F91FF90DF90CF900C9475020F931F934E
:100A4000CF93DF9300D000D0CDB7DEB7182F109230
:100A5000C6011092C7011092C8011092C9011092EC
:100A6000CA0144E0BE016F5F7F4F0E94E9048A81A2
:100A70009981482F50E065E0559547956A95E1F7D3
:100A800028E0929F400D511D1124052E000C660B8D
:100A9000770B4093C7015093C8016093C9017093CD
:100AA000CA0183FF29C092E0440F551F661F771FBC
:100AB0009A95D1F78370480F511D611D711D762FD6
:100AC000652F542F44278B81480F511D611D711DC7
:100AD000762F652F542F44278C81480F511D611D9F
:100AE000711D4093C7015093C8016093C901709371
:100AF000CA0181E08093C6018FEF810F0E94190324
:100B0000082F84E0810F0E941903482F03FF04C0BF
:100B100081E08093D40102C01092D4014F704093C1
:100B2000CB01493020F08FEF8093CB0106C06CECF5
:100B300071E085E0810F0E94E9040F900F900F9003
:100B40000F90DF91CF911F910F910895CF93DF9375
:100B50000E943401EC0142E050E064E171E089E27E
:100B600091E00E9455018C0F9D1FDF91CF91089558
:100B70000E94C30D1F920F920FB60F9211242F9354
:100B80003F934F935F936F937F938F939F93AF9315
:100B9000BF93EF93FF9389E291E00E94B801FF9128
:100BA000EF91BF91AF919F918F917F916F915F91E5
:100BB0004F913F912F910F900FBE0F901F9018955E
:100BC0001F920F920FB60F9211242F938F939F9322
:100BD000EF93FF93E0913901F0913A018081E09128
:100BE0003F01F091400182FD12C09081809142014D
:100BF0008F5F8F7320914301821751F0E091420182
:100C0000F0E0E75DFE4F958F8093420101C0808147
:100C1000FF91EF919F918F912F910F900FBE0F90A9
:100C20001F9018951F920F920FB60F9211242F93B9
:100C30003F938F939F93AF93BF93809119019091AE
:100C40001A01A0911B01B0911C013091180123E001
:100C5000230F2D3720F40196A11DB11D05C026E8F4
:100C6000230F0296A11DB11D209318018093190135
:100C700090931A01A0931B01B0931C0180911D0158
:100C800090911E01A0911F01B09120010196A11D1C
:100C9000B11D80931D0190931E01A0931F01B0937D
:100CA0002001BF91AF919F918F913F912F910F9014
:100CB0000FBE0F901F901895CF93DF93E9E2F1E0FC
:100CC0001382128288EE93E0A0E0B0E084839583E3
:100CD000A683B78388E091E09183808385EC90E0E0
:100CE0009587848784EC90E09787868780EC90E0F6
:100CF000918B808B81EC90E0938B828B82EC90E0E7
:100D0000958B848B86EC90E0978B868B118E128E60
:100D1000138E148EC6ECD1E08AE0888B61E00E94CD
:100D2000750261E08889DF91CF910C94A502CF9381
:100D3000DF93CDB7DEB7C359D1090FB6F894DEBF44
:100D40000FBECDBF789484B5826084BD84B58160C8
:100D500084BD85B5826085BD85B5816085BD809186
:100D60006E00816080936E001092810080918100FE
:100D700082608093810080918100816080938100F6
:100D8000809180008160809380008091B1008460B8
:100D90008093B1008091B00081608093B000809119
:100DA0007A00846080937A0080917A0082608093D8
:100DB0007A0080917A00816080937A0080917A0035
:100DC000806880937A001092C10062E082E00E9405
:100DD000A502E0913901F0913A0182E08083E0912F
:100DE0003501F09136011082E0913701F091380120
:100DF00080E1808310924101E0913D01F0913E013C
:100E000086E08083E0913B01F0913C01808180612C
:100E10008083E0913B01F0913C0180818860808378
:100E2000E0913B01F0913C01808180688083E091FA
:100E30003B01F0913C0180818F7D80831FB7F89446
:100E400080912101811127C0EEEFF0E08491E2E171
:100E5000F1E09491E82FF0E0EE0FFF1FEE58FF4F06
:100E6000A591B491EC91E92321F461E08AE00E941C
:100E7000750261E08AE00E94A5028CB580618CBD9C
:100E80008CB580648CBD61E08DE00E94A50261E0BC
:100E90008BE00E94A502809121018F5F8093210148
:100EA0001FBF60E08091D6010E94750280EC0E9415
:100EB000120361E08091D6010E9475020E94E10256
:100EC0004B015C0155E0C52ED12CE12CF12C0E9488
:100ED000E102DC01CB0188199909AA09BB09883E06
:100EE0009340A105B10558F021E0C21AD108E108EC
:100EF000F10888EE880E83E0981EA11CB11CC11475
:100F0000D104E104F10419F780E48093D70180E86B
:100F10000E948A0381115AC060E08AE20E94100494
:100F200060E989E20E94100462E888E20E941004ED
:100F300061E080E20E94F40361E084E20E94F40335
:100F400061E080E00E94F40360E084E00E94F4032A
:100F500061E088E00E94F40360E080E10E94F40315
:100F600061E084E10E94F40360E088E10E94F40300
:100F700010E360E0812F0E94100460E080E1810FA7
:100F80000E94100460E080E2810F0E9410041F5F45
:100F90001E3379F760E080E60E94100460E080E78D
:100FA0000E94100463E08BE20E94100444E064E6B7
:100FB00080E60E94360340E060E680E70E94360348
:100FC0008091D7010E948A03882319F08CE790E072
:100FD00002C08AE990E00E94A6051092D70180E045
:100FE0000E948A0380E480937C0080917A00806470
:100FF00080937A0080917A0086FDFCCF6091780022
:101000008091790070E0782B072E000C880B990BEB
:10101000611571058105910511F00E94790ACE01D3
:1010200001967C01212C312C210133943E0199E859
:10103000690E711C8E010F571F4FD8011896CE569E
:10104000DF4FB983A883C259D0400E940603809124
:101050002301681B643608F456C00E94060360939F
:101060002301809122018F5F8093220198E0F70194
:1010700011929A95E9F791E09C8393E09E8395E025
:10108000988789830E94740AA20191010E94230D0E
:101090006A8380912201982F96959B83880F8D8378
:1010A0000E94740AA20191010E94230D6F830E9485
:1010B000740A2092C7013092C8014092C90150922F
:1010C000CA011092D4011092C60128E030E040E03D
:1010D00050E00E94230D6F5F6093CB01F701ACECF1
:1010E000B1E0CE01099621912D93E817F907D9F7C0
:1010F0000E942D04811103C084ED90E002C08CEBAE
:1011000090E00E94A6050E940603209124013091E0
:101110002501621B730B62337105F0F00E94060318
:101120007093250160932401809126018F5F8D3893
:1011300008F08AE080932601809127019091280190
:101140008A5B9F4F8D34FDE19F0710F088EC90E0A3
:101150009093280180932701EEE1F1E08491EAE089
:10116000F1E0C490E6EFF0E0D490DD20B1F0811121
:101170000E944C02ED2DF0E0EE0FFF1FE651FF4FF5
:10118000A591B491EC91CE2241F004C080E391E0AE
:101190000E94A6050E94420258CF60E08091D601CD
:1011A0000E94750280EA0E94120380E00E941203EE
:1011B000D82E61E08091D6010E947502D0FE06C053
:1011C00081E60E941E0540E061E007C0D1FEDECF4F
:1011D00081E70E941E0540E062E08CE20E94360337
:1011E0008091C601882389F08091C7019091C80140
:1011F000A091C901B091CA01B0688093C7019093D2
:10120000C801A093C901B093CA018091D401882379
:1012100089F08091C7019091C801A091C901B09156
:10122000CA01B0648093C7019093C801A093C9011B
:10123000B093CA018090C7019090C801A090C901E5
:10124000B090CA012091CB01CF56DF4F2883C159FE
:10125000D040293068F4ACECB1E0F30130E0CF01CC
:1012600086199709821793071CF48D918193F7CF04
:10127000B7FE11C01F92CF56DF4F2881C159D04011
:101280002F93D501C401BF71BF93AF939F938F93E9
:101290008AEE91E00DC01F92CF56DF4F2881C159D1
:1012A000D0402F93BF92AF929F928F928EEB91E09E
:1012B0009F938F93FF92EF920E94820A0FB6F89449
:1012C000DEBF0FBECDBFF70101900020E9F73197D7
:1012D000AF014E195F09B70189E291E00E94550103
:1012E000B6FC02C0630105C088EA91E00E943401A7
:1012F0002AC08C2D8619CF56DF4F2881C159D04086
:10130000821708F5D6018D916D011F928F93A0EA87
:10131000B1E0BF93AF93FF92EF920E94820AF70170
:1013200001900020E9F73197AF014E195F09B7012D
:1013300089E291E00E9455010F900F900F900F905D
:101340000F900F90D6CF42E050E064E171E089E267
:1013500091E00E9455018FE1B82291EF891693E345
:1013600099069BEDA90698E1B90609F06CC0D30176
:1013700011968C911197813009F065C012969C915D
:1013800084EF890F823008F05EC088E0F801119286
:101390008A95E9F783E0D8018C9381E411968C93C8
:1013A000119785E514968C93149715968C93159741
:1013B00016968C93169717968C93179712969C9364
:1013C00012979C3081F484E08C9380912701909156
:1013D0002801880F991F880F991F13969C931397C4
:1013E00014968C9304C080912601F801838380E1D8
:1013F00091EFAAEDB8E18093C7019093C801A09343
:10140000C901B093CA011092D40181E08093C60152
:1014100088E08093CB01F801ACECB1E081918D9331
:10142000CE56DF4F88819981C259D040E817F9071D
:10143000A9F70E942D04811103C08EE891E0A8CE87
:1014400083E791E0A5CE83E691E0A2CE8F929F92B2
:10145000AF92BF92CF92DF92EF92FF92CF93DF9342
:10146000EC01688179818A819B8161157105810513
:10147000910521F464E279ED8BE597E02DE133EFFE
:1014800041E050E00E94230D49015A019B01AC014B
:10149000A7EAB1E40E94420D6B017C01ACEEB4EF0F
:1014A000A50194010E94500DDC01CB018C0D9D1D06
:1014B000AE1DBF1DB7FF03C00197A109B0488883C7
:1014C0009983AA83BB83BC01CD019F77DF91CF9124
:1014D000FF90EF90DF90CF90BF90AF909F908F9054
:1014E00008950E94260A089580E091E00E94260A4D
:1014F000089560930001709301018093020190931D
:1015000003010895AEE0B0E0E8E8FAE00C94630D62
:101510000D891E898EE08C831A8309838FEF9FE7E4
:101520009E838D83AE01475E5F4F6F89788DCE01BC
:1015300001960E94A50A2F813885F801E20FF31F5A
:1015400010822E96E4E00C947F0DACE0B0E0EBEA64
:10155000FAE00C94550D7C016B018A01FC011782A5
:101560001682838181FFBDC1CE0101964C01F70136
:101570009381F60193FD859193FF81916F018823FB
:1015800009F4ABC1853239F493FD859193FF8191C4
:101590006F01853229F4B70190E00E948D0CE7CFEE
:1015A000512C312C20E02032A0F48B3269F030F441
:1015B000803259F0833269F420612CC08D3239F0C9
:1015C000803339F4216026C02260246023C0286063
:1015D00021C027FD27C030ED380F3A3078F426FFC0
:1015E00006C0FAE05F9E300D1124532E13C08AE02E
:1015F000389E300D1124332E20620CC08E3221F41F
:1016000026FD6BC1206406C08C3611F4206802C030
:10161000883641F4F60193FD859193FF81916F0126
:101620008111C1CF982F9F7D9554933028F40C5F82
:101630001F4FFFE3F9830DC0833631F0833771F01C
:10164000833509F05BC022C0F801808189830E5F79
:101650001F4F44244394512C540115C03801F2E02B
:101660006F0E711CF801A080B18026FF03C0652DAC
:1016700070E002C06FEF7FEFC5012C870E94820CE3
:101680002C0183012C852F77222E17C03801F2E020
:101690006F0E711CF801A080B18026FF03C0652D7C
:1016A00070E002C06FEF7FEFC5012C870E94770CBE
:1016B0002C012C852068222E830123FC1BC0832D46
:1016C00090E048165906B0F4B70180E290E00E941D
:1016D0008D0C3A94F4CFF50127FC859127FE81917A
:1016E0005F01B70190E00E948D0C31103A94F1E057
:1016F0004F1A51084114510471F7E5C0843611F0B6
:10170000893639F5F80127FF07C060817181828130
:1017100093810C5F1F4F08C060817181072E000C00
:10172000880B990B0E5F1F4F2F76722E97FF09C003
:1017300090958095709561957F4F8F4F9F4F206852
:10174000722E2AE030E0A4010E94C50CA82EA81831
:1017500044C0853729F42F7EB22E2AE030E025C020
:10176000F22FF97FBF2E8F36C1F018F4883579F04B
:10177000B4C0803719F0883721F0AFC02F2F206117
:10178000B22EB4FE0DC08B2D8460B82E09C024FF8C
:101790000AC09F2F9660B92E06C028E030E005C031
:1017A00020E130E002C020E132E0F801B7FE07C0DE
:1017B00060817181828193810C5F1F4F06C06081BF
:1017C000718180E090E00E5F1F4FA4010E94C50C64
:1017D000A82EA818FB2DFF777F2E76FE0BC0372D85
:1017E0003E7FA51450F474FE0AC072FC08C0372D69
:1017F0003E7E05C0BA2C372D03C0BA2C01C0B52CD3
:1018000034FF0DC0FE01EA0DF11D8081803311F41B
:10181000397E09C032FF06C0B394B39404C0832F4D
:10182000867809F0B39433FD13C030FF06C05A2CFC
:10183000B31418F4530C5B18B32CB31468F4B70149
:1018400080E290E03C870E948D0CB3943C85F5CFFC
:10185000B31410F43B1801C0312C34FF12C0B7018F
:1018600080E390E03C870E948D0C3C8532FF17C0DE
:1018700031FD03C088E790E002C088E590E0B70141
:101880000CC0832F867859F031FF02C08BE201C073
:1018900080E237FD8DE2B70190E00E948D0CA51427
:1018A00038F4B70180E390E00E948D0C5A94F7CF92
:1018B000AA94F401EA0DF11D8081B70190E00E9425
:1018C0008D0CA110F5CF332009F451CEB70180E281
:1018D00090E00E948D0C3A94F6CFF70186819781B3
:1018E00002C08FEF9FEF2C96E2E10C94710DFC018A
:1018F0000590615070400110D8F7809590958E0F3B
:101900009F1F0895FC016150704001900110D8F7AD
:10191000809590958E0F9F1F08950F931F93CF93DF
:10192000DF93FB01238121FD03C08FEF9FEF28C0D0
:1019300022FF16C046815781248135814217530703
:1019400044F4A081B1819D012F5F3F4F31832083FB
:101950008C93268137812F5F3F4F3783268310C0BA
:10196000EB01092F182F0084F185E02D0995892BB3
:10197000E1F68E819F8101969F838E83812F902F28
:10198000DF91CF911F910F910895FA01AA27283076
:1019900051F1203181F1E8946F936E7F6E5F7F4F3C
:1019A0008F4F9F4FAF4FB1E03ED0B4E03CD0670FB8
:1019B000781F891F9A1FA11D680F791F8A1F911D0B
:1019C000A11D6A0F711D811D911DA11D20D009F45B
:1019D00068943F912AE0269F11243019305D31939D
:1019E000DEF6CF010895462F4770405D4193B3E086
:1019F0000FD0C9F7F6CF462F4F70405D4A3318F02D
:101A0000495D31FD4052419302D0A9F7EACFB4E0DD
:101A1000A6959795879577956795BA95C9F7009795
:101A20006105710508959B01AC010A2E0694579536
:101A3000479537952795BA95C9F7620F731F841F8D
:101A4000951FA01D0895052E97FB1EF400940E947B
:101A50003A0D57FD07D00E948C0D07FC03D04EF4C1
:101A60000C943A0D50954095309521953F4F4F4F2E
:101A70005F4F089590958095709561957F4F8F4F3A
:101A80009F4F08950E94AE0DA59F900DB49F900D9D
:101A9000A49F800D911D11240895B7FF0C94420D51
:101AA0000E94420D821B930B08952F923F924F92FA
:101AB0005F926F927F928F929F92AF92BF92CF92DE
:101AC000DF92EF92FF920F931F93CF93DF93CDB7E7
:101AD000DEB7CA1BDB0B0FB6F894DEBF0FBECDBF5F
:101AE00009942A88398848885F846E847D848C8430
:101AF0009B84AA84B984C884DF80EE80FD800C8139
:101B00001B81AA81B981CE0FD11D0FB6F894DEBF1B
:101B10000FBECDBFED010895A1E21A2EAA1BBB1B7B
:101B2000FD010DC0AA1FBB1FEE1FFF1FA217B307A9
:101B3000E407F50720F0A21BB30BE40BF50B661FBF
:101B4000771F881F991F1A9469F760957095809583
:101B500090959B01AC01BD01CF010895A29FB001FA
:101B6000B39FC001A39F700D811D1124911DB29FD1
:101B7000700D811D1124911D0895EE0FFF1F05901A
:101B8000F491E02D099481E090E0F8940C94C80D54
:041B9000F894FFCFF7
:101B94000100000000000000D9015501A2018001EC
:081BA400940120020D0A00006B
:00000001FF
