:100000000C946C000C9494000C9494000C948E024C
:100010000C948D020C9494000C9494000C949E0209
:100020000C9494000C948F020C9494000C94940003
:100030000C9494000C9494000C9494000C949400F0
:100040000C943C020C9494000C9494000C94940036
:100050000C9494000C9494000C9494000C949400D0
:100060000C9494000C9494000000000025002800DB
:100070002B000000000023002600290000000008DB
:10008000000201000003040700000000000000005F
:1000900000000000240027002A00010204081020AC
:1000A000408001020408102001020408102004040A
:1000B0000404040404040202020202020303030310
:1000C0000303C87D3201507D3201507D0000507D18
:1000D0003201506F0000E30A11241FBECFEFD8E0B9
:1000E000DEBFCDBF11E0A0E0B1E0EEE1FBE102C078
:1000F00005900D92A432B107D9F721E0A4E2B1E056
:1001000001C01D92AE35B207E1F710E0CCE6D0E0B9
:1001100004C02197FE010E94870DCB36D107C9F795
:100120000E94A8040C948D0D0C940000833081F083
:1001300028F4813099F08230A1F008958730A9F039
:100140008830B9F08430D1F4809180008F7D03C075
:10015000809180008F7780938000089584B58F7799
:1001600002C084B58F7D84BD08958091B0008F77E3
:1001700003C08091B0008F7D8093B0000895CF932D
:10018000DF93282F30E0F901E458FF4F8491F90103
:10019000E656FF4FD491F901E255FF4FC491CC23AD
:1001A00091F081110E949600EC2FF0E0EE0FFF1FFE
:1001B000EE58FF4FA591B491EC91ED2381E090E0D2
:1001C00021F480E002C080E090E0DF91CF910895BB
:1001D000CF93DF9390E0FC01E656FF4F2491FC01A2
:1001E000E255FF4F8491882361F190E0880F991FB9
:1001F000FC01E057FF4FC591D491FC01E859FF4F36
:10020000A591B491611109C09FB7F8948881209598
:1002100082238883EC912E230BC0623061F49FB758
:10022000F8943881822F809583238883EC912E2B3C
:100230002C939FBF06C08FB7F894E8812E2B28839C
:100240008FBFDF91CF9108953FB7F8948091290136
:1002500090912A01A0912B01B0912C0126B5A89B69
:1002600005C02F3F19F00196A11DB11D3FBFBA2F48
:10027000A92F982F8827820F911DA11DB11DBC01A8
:10028000CD0142E0660F771F881F991F4A95D1F76D
:1002900008958F929F92AF92BF92CF92DF92EF928A
:1002A000FF926B017C010E9424014B015C01C1148F
:1002B000D104E104F104F1F00E942401DC01CB013E
:1002C00088199909AA09BB09883E9340A105B1057F
:1002D00070F321E0C21AD108E108F10888EE880E17
:1002E00083E0981EA11CB11CC114D104E104F104E7
:1002F00019F7DDCFFF90EF90DF90CF90BF90AF90D8
:100300009F908F9008958EE00E94BF00892B41F04E
:100310008FE00E94BF0021E0892B19F020E001C08E
:1003200021E0822F089580914301811108C08091BE
:1003300064008F7B8093640081E080934301089583
:100340001F93CF93DF93282F30E0F901E458FF4F3C
:100350008491F901E656FF4FD491F901E255FF4F20
:10036000C491CC23C9F0162F81110E949600EC2F66
:10037000F0E0EE0FFF1FE859FF4FA591B4918FB742
:10038000F894111105C09C91ED2FE095E92302C06E
:10039000EC91ED2BEC938FBFDF91CF911F910895DE
:1003A0002FB7F89460912501709126018091270163
:1003B000909128012FBF0895CF93DF93509134017E
:1003C000409135018091330191E0980FE52FF42F92
:1003D000E80FF11DE80FF11D2591349180E02230E6
:1003E00099F390933301C32F80E0D82F209769F4BD
:1003F000809180008F73809380008091640088607A
:10040000809364001092490134C0209349010E94F6
:10041000D00160933F01C130D10559F48091800033
:100420008F73809380008091640088608093640063
:1004300020C09E0183E0220F331F8A95E1F7CC0F85
:10044000DD1FCC0FDD1F80916400877F80936400E7
:100450001092850010928400D0938900C093880088
:10046000309387002093860080918000806C809379
:100470008000DF91CF9108951F920F920FB60F92D7
:1004800011242F933F938F939F93AF93BF938091AA
:10049000250190912601A0912701B091280130916A
:1004A000240123E0230F2D3720F40196A11DB11D57
:1004B00005C026E8230F0296A11DB11D209324013B
:1004C0008093250190932601A0932701B0932801E2
:1004D0008091290190912A01A0912B01B0912C01CA
:1004E0000196A11DB11D8093290190932A01A0932B
:1004F0002B01B0932C01BF91AF919F918F913F91B0
:100500002F910F900FBE0F901F9018958EBD000079
:100510000DB407FEFDCF8EB50895189518951F925E
:100520000F920FB60F9211248F938FEF8BB92F98E4
:100530008F910F900FBE0F901F9018951F920F92E2
:100540000FB60F9211248F93809141018BB9809146
:100550004001882311F02F9A01C02F988F910F909E
:100560000FBE0F901F901895CF92DF92FF920F93BE
:100570001F93CF93DF931F92CDB7DEB7F82E162FC0
:10058000042F60E080915C0179830E94A00183E0E8
:100590000E9486028F2D0E948602F12EC12E798143
:1005A000D72E8C2D8F19801738F480E00E94860298
:1005B000F60181936F01F5CF61E080915C010F90AE
:1005C000DF91CF911F910F91FF90DF90CF900C940E
:1005D000A0011F93CF93DF93182FCCE4D1E060E00C
:1005E00088890E94A00183E00E948602812F0E94D8
:1005F000860280E00E948602182F61E088890E94AE
:10060000A001812FDF91CF911F910895EF92FF926A
:100610000F931F93CF93DF931F92CDB7DEB7082FB1
:10062000162F8CE4E82E81E0F82E60E0F701808937
:1006300049830E94A00185E00E948602802F0E94CB
:100640008602812F0E9486024981842F0E948602A1
:1006500061E0F70180890F90DF91CF911F910F9199
:10066000FF90EF900C94A0010F931F93CF93DF9313
:10067000C82F0E94D001D62F0C2F10E04C2F60EE17
:100680008FE00E9406038EE00E94E902807E282F00
:1006900030E02017310741F00E94D001962F9D1BBA
:1006A000993C60F381E001C080E0DF91CF911F9120
:1006B0000F910895CF92DF92FF920F931F93CF93E4
:1006C000DF931F92CDB7DEB7F82E162F042F60E010
:1006D00080915C0179830E94A00182E00E948602E1
:1006E0008F2D0E948602F12EC12E7981D72E8C2D5E
:1006F0008F19801730F4F60181916F010E948602F4
:10070000F6CF61E080915C010F90DF91CF911F9156
:100710000F91FF90DF90CF900C94A0010F931F9347
:10072000CF93DF93082F162FCCE4D1E060E08889C7
:100730000E94A00182E00E948602802F0E94860211
:10074000812F0E94860261E08889DF91CF911F91FD
:100750000F910C94A0010F931F93CF93DF9300D0C0
:1007600000D0CDB7DEB7182F10924C0110924D017A
:1007700010924E0110924F011092500144E0BE01C0
:100780006F5F7F4F0E94B4028A819981482F50E0A9
:1007900065E0559547956A95E1F728E0929F400DF1
:1007A000511D1124052E000C660B770B40934D0153
:1007B00050934E0160934F017093500183FF29C005
:1007C00092E0440F551F661F771F9A95D1F78370EB
:1007D000480F511D611D711D762F652F542F442721
:1007E0008B81480F511D611D711D762F652F542F70
:1007F00044278C81480F511D611D711D40934D018F
:1008000050934E0160934F017093500181E08093AB
:100810004C018FEF810F0E94E902082F84E0810FC5
:100820000E94E902482F03FF04C081E080935A012F
:1008300002C010925A014F7040935101493020F08C
:100840008FEF8093510106C062E571E085E0810F72
:100850000E94B4020F900F900F900F90DF91CF91F4
:100860001F910F910895CF93DF93C82F8EE00E94C0
:10087000E902807E8032F9F4C032E9F08BE20E9416
:10088000E902D82FD07486FD05C040E460E48BE215
:100890000E94060340E460E48CE20E94060380E6C6
:1008A0000E943403811111C0D11105C040E060E401
:1008B0008BE20E94060340E060E48CE20E940603A3
:1008C0008C2FDF91CF910C94340381E0DF91CF9195
:1008D0000895CF92DF92EF92FF92CF93DF9300D0F3
:1008E00000D0CDB7DEB76A01EE24FF242C833B8312
:1008F000613089F42C2D2C719C2D937038E0239F4E
:10090000900D112498609A83A60125E0569547958D
:100910002A95E1F70BC09C2D9295990F907E9A83B2
:10092000A60193E0569547959A95E1F7498344E0EF
:10093000BE016F5F7F4F0E945A030F900F900F9080
:100940000F90DF91CF91FF90EF90DF90CF900895BF
:10095000CF93DF93CDB7DEB764970FB6F894DEBFC1
:100960000FBECDBF789484B5826084BD84B58160AC
:1009700084BD85B5826085BD85B5816085BD80916A
:100980006E00816080936E001092810080918100E2
:1009900082608093810080918100816080938100DA
:1009A000809180008160809380008091B10084609C
:1009B0008093B1008091B00081608093B0008091FD
:1009C0007A00846080937A0080917A0082608093BC
:1009D0007A0080917A00816080937A0080917A0019
:1009E000806880937A001092C10020E030E080E8B7
:1009F0000FB6F89480936100209361000FBE62E00F
:100A000088E00E94E80062E08EE00E94E80062E078
:100A10008FE00E94E80062E080E10E94E80061E06F
:100A200089E00E94E80084B1806C84B92E988FEF31
:100A3000809341018BB961E085E00E94E80061E0AC
:100A400084E00E94E80061E081E00E94E80061E04B
:100A500082E00E94E80061E083E00E94E80061E03B
:100A600086E00E94E80061E087E00E94E80061E023
:100A700080E00E94E80062E081E10E94E80062E01C
:100A800082E10E94E80062E083E10E94E80082E0E7
:100A90008093800081E18093810080E092E09093D8
:100AA00089008093880080E094E090938700809391
:100AB00086001092B00083E08093B10080937000B4
:100AC0008FE78093B30080916B00816080936B000F
:100AD00080916C00836080936C00809168008360DB
:100AE0008093680085E080937A008091640080683C
:100AF000809364008091640088608093640080919A
:100B000064008064809364008091640081608093BD
:100B1000640080B7806880BF2F9862E370E080E057
:100B200090E00E9449012F9A62E370E080E090E03B
:100B30000E9449012F9883B7817F846083BF1FB7CC
:100B4000F89480912D01811127C0E8EBF0E08491A9
:100B5000E4EAF0E09491E82FF0E0EE0FFF1FE05799
:100B6000FF4FA591B491EC91E92321F461E08AE073
:100B70000E94A00161E08AE00E94E8008CB58061DB
:100B80008CBD8CB580648CBD61E08DE00E94E80076
:100B900061E08BE00E94E80080912D018F5F8093DF
:100BA0002D011FBF60E080915C010E94A00180ECDC
:100BB0000E94860261E080915C010E94A00165E0D4
:100BC00070E080E090E00E94490180E480935D0144
:100BD00080E80E943304811170C060E08AE20E94C4
:100BE0008E0360E989E20E948E0362E888E20E9437
:100BF0008E0320E030E0A90161E080E20E946904F8
:100C000020E030E0A90161E084E20E94690420E074
:100C100030E0A90161E080E00E94690420E030E05A
:100C2000A90160E084E00E94690420E030E0A901AD
:100C300061E088E00E94690420E030E0A90160E002
:100C400080E10E94690420E030E0A90161E084E1D4
:100C50000E94690420E030E0A90160E088E10E9480
:100C6000690410E360E0812F0E948E0360E080E160
:100C7000810F0E948E0360E080E2810F0E948E034C
:100C80001F5F1E3379F760E080E60E948E0360E00C
:100C900080E70E948E0363E08BE20E948E0344E0B3
:100CA00064E680E60E94060340E060E680E70E947A
:100CB000060380915D010E94330480E80E943304A2
:100CC00081110CC02FEF3FEF4FEF5FE161E080E259
:100CD0000E94690480915D010E94330480E80E94B3
:100CE000330481110CC02FEF3FEF4FEF5FE161E064
:100CF00084E20E94690480915D010E94330410E047
:100D000080E80E94330481113BC01330F9F028F4CD
:100D1000113071F0123099F004C01430F1F0153038
:100D200019F120E131EF4AED58E161E080E022C0A5
:100D300020E131EF4AED58E161E084E01BC020E1A1
:100D400031EF4AED58E161E088E014C020E131EF75
:100D50004AED58E161E080E10DC020E131EF4AED5C
:100D600058E161E084E106C020E131EF4AED58E14D
:100D700061E088E10E94690480915D010E94330472
:100D80001F5F163009F0BCCF10925D0180E00E9419
:100D9000330440E460E48BE20E94060381E090E0CB
:100DA0000E94F20A8093310182E090E00E94F20AF0
:100DB0008093320183E090E00E94F20A8093360132
:100DC0009E012F5F3F4F1901AE01475F5F4F5E8766
:100DD0004D875D855D5F5B8B0E94D0016B017C015F
:100DE00088E00E94BF00892BE9F0809130018823C0
:100DF00009F488C080912E0190912F01B601681BE3
:100E0000790B683C710508F47DC0109230018FEFBA
:100E100080930001C601885C910990932F01809313
:100E20002E0170C060E080915C010E94A00180EA08
:100E30000E94860280E00E948602182F61E0809165
:100E40005C010E94A00110FF06C081E60E94AB0376
:100E500040E061E007C011FF55C081E70E94AB038D
:100E600040E062E08CE20E94060380914C018823FE
:100E700089F080914D0190914E01A0914F01B09168
:100E80005001B06880934D0190934E01A0934F01A3
:100E9000B093500180915A01882389F080914D01CF
:100EA00090914E01A0914F01B0915001B064809398
:100EB0004D0190934E01A0934F01B093500140918A
:100EC0004D0150914E0160914F0170915001809100
:100ED0005101893068F4A2E5B1E0F10190E09F0191
:100EE00022193309281739071CF42D912193F7CFC4
:100EF0007F714031514F6A4D784121F48A818134AC
:100F000009F484C2809130018111DFC08091000119
:100F10008F3F71F480912E0190912F01F601E81B13
:100F2000F90BE83CF10508F4D0C08CE08093000197
:100F30003091000198E0F101292F11922A95E9F7EB
:100F400082E0898321E02A8385E58C838D838E83EB
:100F50008F8388873B8341EF53E36BED78E14093C8
:100F60004D0150934E0160934F01709350011092C8
:100F70005A0120934C0190935101F101A2E5B1E097
:100F800081918D936D857E85E617F707C9F7A12CB2
:100F9000B12CA0E39A2EB0E48B2E10E5712E998629
:100FA0008A867B868E01075F1F4FF80161908F0153
:100FB000862D0E94E902982F987083FD03C011E0EE
:100FC000160D05C0FB89F013F0CF10E092E02FEF73
:100FD000A21AB20A923091F432E3A316B104F9F6E0
:100FE00081E080933001D0922F01C0922E01809138
:100FF00000018C3009F066C08DE065C042E3A416A4
:10100000B10471F34091510162E571E085E0810F17
:101010000E945A0380915A01813029F48091510134
:101020008064809351016091510184E0810F0E949E
:101030008E0340914D0150914E0160914F0170918E
:10104000500180914C018130B1F44C875B87AB013A
:1010500066277727942F9C71842F8370E8E09E9FEA
:10106000800D112488608A87F5E056954795FA959A
:10107000E1F749870DC0CA0133E0969587953A9507
:10108000E1F789874295440F407E4A871C861B867C
:1010900044E0BE01675F7F4F812F0E945A031150C9
:1010A00048E068E0812F0E94060322E3A22EB12CC3
:1010B000812F0E94E90283FF93CFF1E0AF1AB108BC
:1010C000B9F78ECF8FEF80930001809136018111A7
:1010D00002C08FEF20C0813041F4E09145018FEFD5
:1010E0008E0F8630B8F4F0E010C08230B1F48091F9
:1010F0004601909147018C509E4F68EE73E00E942C
:10110000730D6A30710530F4FB01E75EFE4F80819C
:10111000809501C08FE780934101809144018093C5
:1011200040018EE00E94BF0021E0892B09F020E001
:1011300029838FE00E94BF0021E0892B09F020E085
:101140002A830E94D001562EC62E772E410189E3B4
:10115000A82E81E0B82E97E3E92E91E0F92E0BE35B
:1011600011E0D12C44244394F40161904F01662096
:1011700009F462C0C0924A0170924B010E9493012F
:10118000F801C0827182F501808181115DC0F70193
:101190008081882309F458C01082F1E0DF1649F1FC
:1011A0006091460180914701609331018093320143
:1011B00081E090E06C8B0E94F20A6C89681721F044
:1011C00081E090E00E94FA0A6091320182E090E0B2
:1011D0006C8B0E94F20A6C89681721F082E090E023
:1011E0000E94FA0A2EEC30E030933501209334014E
:1011F0001EC0809136018F5F833018F480933601D2
:1012000002C0109236016091360183E090E06C8B51
:101210000E94F20A6C89681721F083E090E00E9436
:10122000FA0A4EEC50E0509335014093340110928D
:1012300033010E94DC0108C0F8018081F52DF81B04
:10124000F23310F0F7014082F50161925F01FFEF88
:10125000EF1AFF0A0E5F1F4F21E0D21619F0DD24AE
:10126000D39482CF10914901112341F00E94D00103
:1012700080913F01681B611708F080C18091430194
:10128000882309F479C00E94D00180914201681B33
:10129000623308F471C00E94D001609342018091D2
:1012A00064008E7F8093640080917A0080688093D0
:1012B0007A0082E480937C0080917A00806480933D
:1012C0007A0080917A0086FDFCCF20917800809191
:1012D000790030E0382B80917A008F7780937A0004
:1012E000809164008160809364002C33310550F05C
:1012F0002B3842E0340710F02AE832E0A90160E020
:1013000070E004C04CE350E060E070E08091430185
:10131000882391F19A01AB012C53310941095109FC
:10132000A6E0BFEF0E94350B2EE432E040E050E033
:101330000E94080BBA01A90141505F4F6F4F7F4FC8
:10134000809164004F3F51056105710571F480641F
:1013500080936400809141018BB980914001882382
:1013600011F02F9A09C02F9807C08F7B80936400DB
:10137000242F20952093B3000E94D00120914A0190
:1013800030914B01621B730B683B7B40B8F188E0E6
:101390000E94BF00892B91F18091490181112EC0DB
:1013A0000E94830181112AC080E280935D010E9426
:1013B000330480914301882351F08091640080645C
:1013C000809364008FEF8BB92F9810924301109295
:1013D0004801109247011092460110924501109267
:1013E0004401F89488E00E94BF00892B09F0C9C02D
:1013F000789410925D0180E00E94330480E090E0D8
:10140000892B09F4E9CC0E940000E3CCD0924B0177
:10141000C0924A010E9493018B818C3061F58C81CE
:1014200090E0982F88272D81822B96958795969509
:101430008795909347018093460120913101309127
:1014400032018217930790F080914401811110C0FE
:1014500081E08093440182EC90E090933501809389
:101460003401109233010E94DC0102C01092440149
:101470001092300147CD8D3009F044CD1C8110937E
:10148000480110924501112399F360914601709132
:1014900047016115710561F380E090E00E944F0CF7
:1014A0004B015C01612F70E080E090E00E94510CE4
:1014B0002DEB38E145E152E40E94060D9B01AC01A1
:1014C000C501B4010E94DD0B6F87788B898B9A8BE5
:1014D0001A31D8F4612F70E080E090E00E944F0C48
:1014E0004B015C0120E030E040E85FE30E946C0BC0
:1014F000A50194010E94DD0B2AE037ED43E25CE395
:101500000E946C0B4B015C0107C006E6802E982CF4
:1015100006E8A02E0FE3B02E10E074E0179FF00154
:101520001124EF5FFE4F2F85388949895A896081E0
:101530007181828193810E94DD0B2B013C011F5F31
:10154000A50194010E94D80B87FD05C0163029F72C
:10155000109245018DCFA501940160E070E080E01C
:1015600090E40E946B0B9B01AC01C301B2010E948D
:10157000010D18165CF7109345017ACF0E94DC012B
:101580007DCE0E948301811133CF60E080E10E9413
:10159000E8002E9A83B7816083BF85B7806685BFD8
:1015A0008F7D85BF7894889583B78E7F83BF2E9873
:1015B00062E080E10E94E8000E94D00170934B013C
:1015C00060934A0115CFCF93DF93CCE4D1E08AE05A
:1015D000888B61E00E94A00161E08889DF91CF9152
:1015E0000C94E800F999FECF92BD81BDF89A992735
:1015F00080B50895262FF999FECF1FBA92BD81BDFF
:1016000020BD0FB6F894FA9AF99A0FBE0196089584
:10161000052E97FB1EF400940E941F0B57FD07D068
:101620000E943A0B07FC03D04EF40C941F0B50950C
:101630004095309521953F4F4F4F5F4F08959095BE
:101640008095709561957F4F8F4F9F4F08950E94B1
:101650005C0BA59F900DB49F900DA49F800D911DD4
:1016600011240895B7FF0C94270B0E94270B821BAF
:10167000930B0895A1E21A2EAA1BBB1BFD010DC0FE
:10168000AA1FBB1FEE1FFF1FA217B307E407F50732
:1016900020F0A21BB30BE40BF50B661F771F881F0E
:1016A000991F1A9469F760957095809590959B01A4
:1016B000AC01BD01CF010895A29FB001B39FC0014D
:1016C000A39F700D811D1124911DB29F700D811D6E
:1016D0001124911D08955058BB27AA270E94830BFF
:1016E0000C94C70C0E94B90C38F00E94C00C20F07A
:1016F00039F49F3F19F426F40C94B60C0EF4E095DF
:10170000E7FB0C94B00CE92F0E94D80C58F3BA17E1
:10171000620773078407950720F079F4A6F50C9407
:10172000FA0C0EF4E0950B2EBA2FA02D0B01B90187
:1017300090010C01CA01A0011124FF27591B99F047
:10174000593F50F4503E68F11A16F040A22F232F53
:10175000342F4427585FF3CF469537952795A795A3
:10176000F0405395C9F77EF41F16BA0B620B730B4A
:10177000840BBAF09150A1F0FF0FBB1F661F771FBB
:10178000881FC2F70EC0BA0F621F731F841F48F470
:10179000879577956795B795F7959E3F08F0B0CFF9
:1017A0009395880F08F09927EE0F979587950895E0
:1017B0000E948C0C08F481E008950E94F10B0C94B7
:1017C000C70C0E94C00C58F00E94B90C40F029F4DC
:1017D0005F3F29F00C94B00C51110C94FB0C0C944D
:1017E000B60C0E94D80C68F39923B1F3552391F3FA
:1017F000951B550BBB27AA2762177307840738F080
:101800009F5F5F4F220F331F441FAA1FA9F335D0DC
:101810000E2E3AF0E0E832D091505040E695001C90
:10182000CAF72BD0FE2F29D0660F771F881FBB1F4A
:10183000261737074807AB07B0E809F0BB0B802D28
:10184000BF01FF2793585F4F3AF09E3F510578F054
:101850000C94B00C0C94FB0C5F3FE4F3983ED4F373
:10186000869577956795B795F7959F5FC9F7880F28
:10187000911D9695879597F90895E1E0660F771F7A
:10188000881FBB1F621773078407BA0720F0621B0B
:10189000730B840BBA0BEE1F88F7E0950895E8945C
:1018A00009C097FB3EF490958095709561957F4FA8
:1018B0008F4F9F4F9923A9F0F92F96E9BB27939556
:1018C000F695879577956795B795F111F8CFFAF466
:1018D000BB0F11F460FF1BC06F5F7F4F8F4F9F4F97
:1018E00016C0882311F096E911C0772321F09EE8F5
:1018F000872F762F05C0662371F096E8862F70E05B
:1019000060E02AF09A95660F771F881FDAF7880F34
:101910009695879597F90895990F0008550FAA0B8A
:10192000E0E8FEEF16161706E807F907C0F01216F2
:101930001306E407F50798F0621B730B840B950BF5
:1019400039F40A2661F0232B242B252B21F408954A
:101950000A2609F4A140A6958FEF811D811D0895E7
:1019600097F99F6780E870E060E008959FEF80EC52
:10197000089500240A9416161706180609060895F5
:1019800000240A9412161306140605060895092E5B
:101990000394000C11F4882352F0BB0F40F4BF2BCA
:1019A00011F460FF04C06F5F7F4F8F4F9F4F08950A
:1019B00057FD9058440F551F59F05F3F71F0479500
:1019C000880F97FB991F61F09F3F79F087950895E5
:1019D000121613061406551FF2CF4695F1DF08C004
:1019E000161617061806991FF1CF86957105610521
:1019F00008940895E894BB2766277727CB0197F9C9
:101A000008950E948C0C08F48FEF08950E94190D20
:101A10000C94C70C0E94B90C38F00E94C00C20F046
:101A2000952311F00C94B00C0C94B60C11240C946A
:101A3000FB0C0E94D80C70F3959FC1F3950F50E0FA
:101A4000551F629FF001729FBB27F00DB11D639F70
:101A5000AA27F00DB11DAA1F649F6627B00DA11D16
:101A6000661F829F2227B00DA11D621F739FB00DBC
:101A7000A11D621F839FA00D611D221F749F33272C
:101A8000A00D611D231F849F600D211D822F762FC5
:101A90006A2F11249F5750409AF0F1F088234AF0A2
:101AA000EE0FFF1FBB1F661F771F881F915050400E
:101AB000A9F79E3F510580F00C94B00C0C94FB0CE0
:101AC0005F3FE4F3983ED4F3869577956795B79595
:101AD000F795E7959F5FC1F7FE2B880F911D9695AF
:101AE000879597F90895AA1BBB1B51E107C0AA1F50
:101AF000BB1FA617B70710F0A61BB70B881F991FAF
:101B00005A95A9F780959095BC01CD010895EE0FE7
:0E1B1000FF1F0590F491E02D0994F894FFCF8B
:101B1E00FF87164940643BEF3FB4C8A63F79E9867C
:101B2E003F355E5A3FAC1C3A3F7E12BCB6D2E6EE53
:041B3E0032FEF6007D
:00000001FF
