:107E00001F92CDB7DEB790E080E80FB6F89480936C
:107E10006100909361000FBE112484B714BE81FFEE
:107E2000D6D085E08093810082E08093C00088E115
:107E30008093C10086E08093C20083E08093C400F9
:107E40008EE0AFD0279A26E088E19EEF31E0909354
:107E500085008093840036BBB09BFECF1F9AA89507
:107E60002150A9F7812C912C93E0F92EEE24E39474
:107E700025E0D22E31E1C32E86D0813479F483D02F
:107E8000898395D08981823811F482E005C08138D8
:107E900011F486E001C083E06FD06BC0823411F42E
:107EA00084E103C0853419F485E089D062C085354A
:107EB00041F469D0882E67D0912C982A880C991C9F
:107EC00057C0863521F484E07AD080E0E5CF84364F
:107ED00009F032C058D057D0B82E55D0A82E00E0A7
:107EE00011E051D0F80181938F01BE12FACF5FD01B
:107EF000F5E4AF1201C0FFCFF401F7BEE89507B675
:107F000000FCFDCFF401A0E0B1E02C9111968C9122
:107F1000119730E0382B12960901E7BEE89511243D
:107F20003296BA12F2CFF401D7BEE89507B600FC3C
:107F3000FDCFC7BEE8951DC0843769F424D023D097
:107F4000B82E21D034D08401F80185918F0114D04E
:107F5000BA94D1F70EC0853739F429D08EE10CD010
:107F600085E90AD08FE098CF813511F488E019D0E7
:107F70001ED080E101D080CF9091C00095FFFCCF52
:107F80008093C60008951F9A8091C00087FFFCCFA0
:107F90008091C00084FD01C0A8958091C6001F9A01
:107FA0000895E0E6F0E098E1908380830895EBDFA8
:107FB000803219F088E0F5DFFFCF84E1DDCFCF9389
:107FC000C82FE1DFC150E9F7F2DFCF910895282EE5
:0A7FD00080E0E7DFE0E0FF270994FE
:027FFE00020679
:0400000300007E007B
:00000001FF
